:100000000C942A000C943C000C943C000C943C0092
:100010000C943C000C943C000C943C000C943C0070
:100020000C943C000C943C000C943C000C943C0060
:100030000C943C000C943C000C943C000C943C0050
:100040000C943C000C943C000C943C000C943C0040
:100050000C943C0011241FBECFE5D8E0DEBFCDBF1D
:1000600020E0A0E6B0E001C01D92A036B207E1F7A3
:100070000E943E000C9475000C9400008F9A82E060
:1000800081BB1BB88AB188618AB986E880BD87E6E2
:1000900089B981E48CB95D9BFECF68E45FE69AE69E
:1000A00041E634E72AE082B3805882BB6CB95D9B9D
:1000B000FECF5CB95D9BFECF9CB95D9BFECF9CB92A
:1000C0005D9BFECF4CB95D9BFECF3CB95D9BFECFE7
:1000D0002CB95D9BFECF7FEF89E6E8E1715080404F
:0E00E000E040E1F700C00000DECFF894FFCF53
:00000001FF
