:1000000012C02CC02BC02AC04CC028C07EC026C045
:1000100025C024C023C022C021C020C01FC01EC0D4
:100020001DC01CC01BC011241FBECFE5D4E0DEBF25
:10003000CDBF10E0A0E6B0E0E8EAF2E002C0059033
:100040000D92AC36B107D9F720E0ACE6B0E001C0C4
:100050001D92A337B207E1F712D124C1D1CF2FE708
:100060008AE196E0215080409040E1F700C0000016
:1000700082B5886082BD85B5856085BD02B402FC0D
:10008000FDCF80E489BF8EB58A608EBD1DBC1CBCCF
:100090008CE990E09BBD8ABD89B7806189BF789467
:1000A00008951F920F920FB60F9211248F939F9372
:1000B00080916100882311F1809172008F5F8C33F1
:1000C00019F08093720016C0109272008091710036
:1000D0008F5F8C3319F0809371000CC01092710007
:1000E000809170008F5F883119F08093700002C09A
:1000F0001092700095B381E0892785BB9F918F9105
:100100000F900FBE0F901F9018951F920F920FB671
:100110000F9211248F939F93EF93FF9388B3807F67
:1001200088BB80916E0090916F0081309105F9F04D
:100130001CF4892B39F04DC08230910539F10397B9
:10014000D1F147C0E09171008DECE89F812D112421
:10015000869586958695880F982F990F990F890F08
:10016000E81BF0E0EE59FF4F808182BB32C08091E6
:100170007100EDEC8E9FE12D1124E695E695E69554
:10018000F0E0EE59FF4F808182BB23C0E091700008
:100190008DECE89F812D1124869586958695880F94
:1001A000982F990F990F890FE81BF0E0EE59FF4F38
:1001B000808182BB0EC080917000EDEC8E9FE12D9E
:1001C0001124E695E695E695F0E0EE59FF4F808123
:1001D00082BB81E090E000906E0002C0880F991F02
:1001E0000A94E2F788BB80916E0090916F000196AF
:1001F0008430910529F090936F0080936E0004C0C5
:1002000010926F0010926E0080916C0090916D00C2
:1002100001968431910529F090936D0080936C00D4
:1002200025C010926D0010926C0095B382E0892772
:1002300085BB9B9B08C0AA9A109272001092710015
:100240001092700013C09C9B10C0AA9A809160000D
:10025000882329F0109261001092600007C081E0AD
:10026000809361008093600001C0AA98FF91EF9194
:100270009F918F910F900FBE0F901F90189587B38D
:100280008F6087BB81B38FEF81BB87E084BBE7DEE4
:100290002FE986E891E0215080409040E1F700C0CE
:0802A0000000F6CFF894FFCF37
:0C02A8000101C0F9A4B0999282F8809086
:00000001FF
