:1000000012C046C02BC02AC029C028C027C026C0A5
:1000100025C024C023C022C021C020C01FC01EC0D4
:100020001DC01CC01BC011241FBECFE5D4E0DEBF25
:10003000CDBF10E0A0E6B0E0EEE3F1E002C0059035
:100040000D92A43CB107D9F720E0A4ECB0E001C0C8
:100050001D92A43CB207E1F74BD06FC0D1CF5D9B9E
:10006000FECF8CB908951F93CF93DF93EC01162F29
:100070008881882329F02196F2DF89918111FCCFB4
:10008000112311F08DE0EBDFDF91CF911F910895E7
:100090001F920F920FB60F9211242F933F934F93FD
:1000A0005F936F937F938F939F93AF93BF93EF93E0
:1000B000FF93C09A61E080E690E0D5DFFF91EF9179
:1000C000BF91AF919F918F917F916F915F914F9170
:1000D0003F912F910F900FBE0F901F90189588E1C0
:1000E0008AB986E880BD10BC87E689B9579A089519
:1000F0008BB780648BBF85B7826085BF2FEF87E8A1
:1001000093E1215080409040E1F700C00000E7DF1C
:10011000B89A2FEF87E893E1215080409040E1F7B3
:1001200000C0000078942FEF89E698E121508040CC
:0E0130009040E1F700C00000F6CFF894FFCF3A
:10013E0041544430393336373236323333343B0060
:10014E0000000000000000000000000000000000A1
:10015E000000000000000000000000000000000091
:10016E000000000000000000000000000000000081
:10017E000000000000000000000000000000000071
:10018E000000000000000000000000000000000061
:04019E00000000005D
:00000001FF
