S0120000474C43445F53485431302E7372656349
S11300000C94A7000C94C4000C94C4000C94C40079
S11300100C94C4000C94C4000C94C4000C94970277
S11300200C94C4000C94C4000C94C4000C94C4003C
S11300300C94C4000C94C4000C94C4000C94C4002C
S11300400C94C4000C94C4000C94C4000C94C4001C
S11300500C94C40000407A10F35A00A0724E1809A0
S11300600010A5D4E80000E87648170000E40B541B
S1130070020000CA9A3B000000E1F50500008096EA
S11300809800000040420F000000A086010000001C
S1130090102700000000E8030000000064000000D6
S11300A000000A00000000000100000000002C769F
S11300B0D888DC674F0823DFC1DFAE59E1B1B796BA
S11300C0E5E3E453C63AE651997696E8E6C2842617
S11300D0EB898C9B62ED407C6FFCEFBC9C9F40F2F3
S11300E0BAA56FA5F490055A2AF75C936B6CF9676F
S11300F06DC11BFCE0E40D47FEF520E6B500D0ED34
S1130100902E0300943577050080841E080000209B
S11301104E0A000000C80C333333330F986E128339
S11301201141EF8D2114893BE65516CFFEE6DB180D
S1130130D1844B381BF77C1D901DA4BBE4242032D2
S113014084725E228100C9F124ECA1E53D271124CB
S11301501FBECFE5D8E0DEBFCDBF13E0A0E6B0E020
S1130160E4EFF8E202C005900D92A634B107D9F786
S113017023E0A6E4B3E001C01D92A83CB207E1F776
S11301800E9453070C9478140C94000083E081BB04
S1130190909A8AE08A95F1F700C0919A8AE08A954C
S11301A0F1F700C090988AE08A95F1F700C0919821
S11301B08AE28A95F1F700C0919A8AE08A95F1F76C
S11301C000C0909A8AE08A95F1F700C0919808954A
S11301D045E14A95F1F7000093E091BB27E030E058
S11301E090E0AC01022E02C0559547950A94E2F7BF
S11301F040FF02C0909A01C0909845E14A95F1F7FA
S11302000000919A45E14A95F1F700009198211573
S1130210310531F48EEF81BB909A8099FECF03C0F3
S113022021503109F0F685E18A95F1F70000919AA1
S113023095E19A95F1F700009198089583E081BBC8
S1130240909A89E090E025E12A95F1F70000919ACF
S113025025E12A95F1F7000091980197A1F70E94F2
S1130260C60008958F929F92AF92BF92CF92DF9271
S1130270EF92FF92633079F1653009F042C0BC011E
S113028080E090E00E94E30D6B017C0124E533EEF5
S113029045E25DE30E94710E4B015C01A7019601EA
S11302A0C701B6010E94710E22EA37EE4BE356E312
S11302B00E94710E9B01AC01C501B4010E94760D30
S11302C020E030E040E850E40E94760D562F472F9E
S11302D0382F292F1AC0BC0180E090E00E94E30D62
S11302E02AE037ED43E25CE30E94710E20E030E047
S11302F040E252E40E94760D562F472F382F292FC3
S113030004C050E040E030E82FE3652F742F832FC2
S1130310922FFF90EF90DF90CF90BF90AF909F907F
S11303208F900895FC0127E030E081E090E0919AFD
S113033045E14A95F1F70000809B0BC06081AC0158
S1130340022E02C0440F551F0A94E2F7462B408345
S11303500BC0AC01022E02C0440F551F0A94E2F7F1
S11303604095508145234083919845E14A95F1F7A2
S1130370000021503109D8F6089583E081BB90989C
S113038085E18A95F1F70000919A85E18A95F1F764
S11303900000919885E18A95F1F700008EEF81BB0A
S11303A0909A0895CF93DF9300D0CDB7DEB71A8229
S11303B019828EEF81BB909A8099FECFCE0101966F
S11303C00E9492010E94BD01CE0102960E949201F8
S11303D0898190E0982F88272A81822B0F900F9093
S11303E0DF91CF9108954F925F926F927F928F9297
S11303F09F92AF92BF92CF92DF92EF92FF920F93B0
S11304001F93CF93DF93CDB7DEB728970FB6F89439
S1130410DEBF0FBECDBF0E94C60083E00E94E8008D
S11304208FE391E00197F1F700C000000E94D20130
S113043063E00E943201162F872E982E092F0E9406
S11304401E0185E00E94E8008FE391E00197F1F737
S113045000C000000E94D2015C0165E00E943201EC
S11304602B013C0120E030E048EC51E4612F782D71
S1130470892D902F0E94760D6B017C01B50180E0DF
S113048090E00E94E30D2CEA35EC47EA58E30E9421
S1130490710E2AE037ED43E25CE30E94770D9B0185
S11304A0AC01C701B6010E94710EA30192010E9422
S11304B0770DF62EC72ED82EE92E0E941E019FEF2F
S11304C021EE84E0915020408040E1F700C000001C
S11304D0412F582D692D702F49835A836B837C8358
S11304E04F2D5C2D6D2D7E2D4D835E836F8378871C
S11304F0212F3A814B815C816F2D7E818F8198857C
S113050028960FB6F894DEBF0FBECDBFDF91CF9112
S11305101F910F91FF90EF90DF90CF90BF90AF901D
S11305209F908F907F906F905F904F9008951F924F
S11305300F920FB60F9211242F933F934F935F9313
S11305406F937F938F939F93AF93BF93EF93FF9397
S1130550809146039091470301968431910529F0D7
S113056090934703809346033CC110924703109233
S11305704603849B1DC0AB9AAA9A80915203909122
S11305805303019690935303809352038230910551
S113059039F484E090E090935303809352031EC196
S11305A0089709F01BC1109253031092520316C10D
S11305B0859B88C0AB9AAA9A809152039091530369
S11305C084309105E9F12CF4009761F0019709F169
S11305D005C18630910509F454C0E4F1079709F484
S11305E067C0FCC020E030E040E85FE360914C036A
S11305F070914D0380914E0390914F030E94770DAB
S113060060934C0370934D0380934E0390934F0378
S1130610E5C020E030E040E85FE36091480370917A
S1130620490380914A0390914B030E94770D609394
S113063048037093490380934A0390934B03CEC0BD
S113064080915003909151030196909351038093AC
S11306505003C4C02DEC3CEC4CEC5DE360916600AF
S11306607091670080916800909169000E94770DF5
S113067060936600709367008093680090936900AC
S1130680ADC02DEC3CEC4CEC5DE3609162007091EC
S1130690630080916400909165000E94770D6093DF
S11306A0620070936300809364009093650096C029
S11306B080916A0090916B00019690936B008093F7
S11306C06A008CC0869B88C0AB9AAA9A8091520318
S11306D09091530384309105E9F12CF4009761F073
S11306E0019709F17BC08630910509F454C0E4F107
S11306F0079709F467C072C020E030E040E85FE388
S113070060914C0370914D0380914E0390914F037F
S11307100E94760D60934C0370934D0380934E03B7
S113072090934F035BC020E030E040E85FE36091CA
S113073048037091490380914A0390914B030E94AE
S1130740760D609348037093490380934A03909312
S11307504B0344C0809150039091510301979093AF
S11307605103809350033AC02DEC3CEC4CEC5DE318
S113077060916600709167008091680090916900B3
S11307800E94760D60936600709367008093680002
S11307909093690023C02DEC3CEC4CEC5DE360913C
S11307A062007091630080916400909165000E94E2
S11307B0760D60936200709363008093640090935D
S11307C065000CC080916A0090916B000197909332
S11307D06B0080936A0002C0AB98AA9882B38058D9
S11307E082BBFF91EF91BF91AF919F918F917F91C8
S11307F06F915F914F913F912F910F900FBE0F908A
S11308001F90189588BBD898D998DA9A8FE99FE0F9
S11308100197F1F700C00000DA98089588BBD89AD0
S1130820D998DA9A85E38A95F1F70000DA98089561
S1130830813049F028F0823049F0833051F00CC007
S1130840DE98DC9A0895DC98DE9A0895DE9ADC9AA4
S11308500895DE98DC980895DE98DC9A0895CF9385
S1130860C62F88540E94020480E48C0F0E94020464
S1130870CF9108950F931F93CF93DF93EC018C01D5
S1130880085F1F4F89910E940E04C017D107D1F74A
S1130890DF91CF911F910F910895EF92FF920F93E3
S11308A01F93CF93DF93D82FC62F842F89010E94E3
S11308B018046D2F8C2F0E942F04F801C081CC23C3
S11308C061F10F5F1F4FD0E0A097CE01880F991FF1
S11308D0880F991FC80FD91FCE010596C817D907CD
S11308E0A4F4CE0184599F4F7C01CF58DF4FF70108
S11308F081917F010E940E048FED9EE20197F1F732
S113090000C00000EC16FD0691F780E00E940E0482
S1130910F801C1918F01C111D6CFDF91CF911F9101
S11309200F91FF90EF9008958FEF87BB8ABBDB9800
S11309308FE39CE90197F1F700C00000DB9A8FE98F
S11309409FE00197F1F700C0000082E00E941804C4
S11309508FE99FE00197F1F700C000008FE30E9448
S1130960020480EC0E9402048FE99FE00197F1F7F2
S113097000C0000083E00E9418048FE99FE0019703
S1130980F1F700C0000008950F931F93CF93DF93F6
S113099000E0802F0E94180460E080E00E942F0491
S11309A010E00CC080E00E940E042197D9F760E0AB
S11309B0812F0E942F041F5F193019F0C1E4D0E089
S11309C0F1CF0F5F023029F7DF91CF911F910F9183
S11309D0089511B888E480B984E086BF089584EA54
S11309E086BF06B607FEFDCF91B1987F81E09830AF
S11309F009F080E0089583B984E886BF06B607FE4F
S1130A00FDCF91B1987F81E0983209F080E008959C
S1130A1024E826BF06B607FEFDCF23B1FC012083E0
S1130A2091B1987F81E0983509F080E00895982F7E
S1130A3092959F70990F292F220F220F920F8F707A
S1130A40890F08951F93CF93DF931F92CDB7DEB71D
S1130A50182F19820E94EF0480ED0E94FB04812F5D
S1130A600E94FB040E94EF0481ED0E94FB04CE016E
S1130A7001960E94080584E986BF89810F90DF9161
S1130A80CF911F910895CF93DF93D82FC62F0E9443
S1130A90EF0480ED0E94FB048D2F0E94FB048C2F39
S1130AA00E94FB0484E986BFDF91CF9108950E94E0
S1130AB0E9048FE39CE90197F1F700C0000065E0C9
S1130AC08EE00E94430560E08FE00E944305089594
S1130AD0AF92BF92CF92DF92EF92FF920F93CF9398
S1130AE0DF93EC017B016A01590180E00E94220539
S1130AF00E941705F601808381E00E9422050E946E
S1130B001705F7018083013081F482E00E942205F9
S1130B1085FB882780F9F501808382E00E94220505
S1130B208F710E941705888307C082E00E94220506
S1130B308F730E9417058883DF91CF910F91FF90E7
S1130B40EF90DF90CF90BF90AF900895CF92DF9257
S1130B50EF92FF920F931F93CF93DF937C016B016E
S1130B60EA01890186E00E9422050E94170590E0AF
S1130B70F8019183808385E00E9422058883F8012F
S1130B80208131812053384FE82FF0E0EE0FEF2F12
S1130B90EE1FFF0B44E64E9FC0014F9F900D1124A2
S1130BA0820F931FF8019183808388818F710E9443
S1130BB01705888384E00E9422058F730E9417051D
S1130BC0F601808383E00E94220587700E94170546
S1130BD0F7018083DF91CF911F910F91FF90EF90E8
S1130BE0DF90CF9008952F923F924F925F926F9231
S1130BF07F928F929F92AF92BF92CF92DF92EF92A9
S1130C00FF920F931F93CF93DF9300D0CDB7DEB73E
S1130C106C01FB012A015901FA82E9824C0120E3AB
S1130C20821A28EF920AC401092C000CAA0BBB0BF0
S1130C3043E0842299249C01AD01215031094109EA
S1130C405109ADE6B1E00E940F0FE230F10549F021
S1130C50E330F10561F0E430F10579F020E030E0B3
S1130C6002C02FE130E0E530F10569F002C02BE36A
S1130C7030E0E630F10569F002C02AE530E0E73003
S1130C80F10569F002C028E730E0E830F10569F0C9
S1130C9002C027E930E0E930F10569F002C025EB34
S1130CA030E0EA30F10571F002C024ED30E0EB30C1
S1130CB0F10559F002C023EF30E03C9741F42EE4F3
S1130CC031E005C021E131E002C020E331E08928B0
S1130CD011F42F5F3F4FA1E3CA1AA8EFDA0AA60165
S1130CE012F44D5F5F4F5595479555954795052CE3
S1130CF0000C6608770843013201B3E56B1AB6E7C6
S1130D007B0AB3E08B0A91081A01052E000C4408F3
S1130D10550874016301C20CD31CE41CF51C2601A4
S1130D203701460E571E681E791E4B595109052E70
S1130D30000C660B770BD301C201841B950BA60B29
S1130D40B70BAC01BD01C901330FAA0BBB0B6A0180
S1130D507B01C80ED91EEA1EFB1EC701B6012DE693
S1130D6031E040E050E00E94DE0E2901A3E14A1A7E
S1130D70A5E05A0AF50151824082FB0160327105F7
S1130D80ACF09B012F51310920323105C4F02F51B1
S1130D90310920323105ECF02F513109203231056F
S1130DA0E4F0EC57F10925E030E002C021E030E046
S1130DB0E032F105ACF02F5F3F4F7F9703C0F9019C
S1130DC022E030E0E032F1055CF02F5F3F4F7F9787
S1130DD007C0F90123E030E003C0F90124E030E06A
S1130DE0EF31F105F4F0AF014E5151094F31510586
S1130DF024F42F5F3F4FFA0120C0B9016E5F7F4F8B
S1130E00AF014C5351094F31510594F06F5F7F4F3F
S1130E104E5151094F31510574F02C5F3F4FE85743
S1130E20F109EF31F1054CF02F5F3F4F7E9705C07C
S1130E309B01FA0102C09B01FA01A981BA81ED93D9
S1130E40FC93F80131832083D5018D919C910F90FF
S1130E500F90DF91CF911F910F91FF90EF90DF9052
S1130E60CF90BF90AF909F908F907F906F905F9046
S1130E704F903F902F9008952FEF87EA91E62150ED
S1130E8080409040E1F700C000008EB58A608EBDBE
S1130E901DBC1CBC8FE19EE49BBD8ABD89B78061EB
S1130EA089BF78940895CF93DF93CDB7DEB7C4514B
S1130EB0D1400FB6F894DEBF0FBECDBF0E945705D8
S1130EC00E94E9048FE39CE90197F1F700C0000058
S1130ED042E351E360E070E04A875B876C877D877B
S1130EE085E0FE013E96DF01282F1D922A95E9F741
S1130EF049835A836B837C833997DF011D928A95DA
S1130F00E9F788E0E7E4F2E0DE01A35FBE4F019079
S1130F100D928A95E1F7FE01EB5FFE4F88E0DF0159
S1130F201D928A95E9F788E0EFE4F2E0DE01A35030
S1130F30BF4F01900D928A95E1F788E0E7E5F2E072
S1130F40DE01AB50BF4F01900D928A95E1F788E026
S1130F50EFE5F2E0DE01A351BF4F01900D928A95B7
S1130F60E1F788E0E7E6F2E0DE01AB51BF4F019024
S1130F700D928A95E1F788E0EFE6F2E0DE01A352F4
S1130F80BF4F01900D928A95E1F788E0E7E7F2E020
S1130F90DE01AB52BF4F01900D928A95E1F788E0D4
S1130FA0EFE7F2E0DE01A353BF4F01900D928A9563
S1130FB0E1F788E0E7E8F2E0DE01AB53BF4F0190D0
S1130FC00D928A95E1F788E0EFE8F2E0DE01A354A0
S1130FD0BF4F01900D928A95E1F788E0E7E9F2E0CE
S1130FE0DE01AB54BF4F01900D928A95E1F788E082
S1130FF0EFE9F2E0DE01A355BF4F01900D928A950F
S1131000E1F788E0E7EAF2E0DE01AB55BF4F01907B
S11310100D928A95E1F788E0EFEAF2E0DE01A3564B
S1131020BF4F01900D928A95E1F788E0E7EBF2E07B
S1131030DE01AB56BF4F01900D928A95E1F788E02F
S1131040EFEBF2E0DE01A357BF4F01900D928A95BA
S1131050E1F788E0E7ECF2E0DE01AB57BF4F019027
S11310600D928A95E1F788E0EFECF2E0DE01A358F7
S1131070BF4F01900D928A95E1F788E0E7EDF2E029
S1131080DE01AB58BF4F01900D928A95E1F788E0DD
S1131090EFEDF2E0DE01A359BF4F01900D928A9566
S11310A0E1F788E0E7EEF2E0DE01AB59BF4F0190D3
S11310B00D928A95E1F788E0EFEEF2E0DE01A35AA3
S11310C0BF4F01900D928A95E1F788E0E7EFF2E0D7
S11310D0DE01AB5ABF4F01900D928A95E1F788E08B
S11310E0EFEFF2E0DE01A35BBF4F01900D928A9512
S11310F0E1F788E0E7E0F3E0DE01AB5BBF4F01908E
S11311000D928A95E1F788E0EFE0F3E0DE01DD96E9
S113111001900D928A95E1F788E0E7E1F3E0DE01C2
S1131120D59601900D928A95E1F788E0EFE1F3E01E
S1131130DE019D9601900D928A95E1F70E94940438
S11311400E943C078F9A81B38F7881BB84B38C6FE4
S113115084BBBFEF2BE732E9B15020403040E1F7C8
S113116000C000000E94C40480916000909161005E
S113117001968C32A1E09A0729F090936100809344
S1131180600006C084E690E0909361008093600064
S1131190BFEF2DEE32E0B15020403040E1F700C007
S11311A0000000915A032BE533E04CE553E06DE574
S11311B073E08EE593E00E94680522E633E041E6A1
S11311C053E060E673E08FE593E00E94A60540914A
S11311D0600350E06091610370E00F2EF4E5EF2EA0
S11311E0F3E0FF2EF02D06E513E028E533E08091CF
S11311F06203909163030E94F3050E94F3012DA3FF
S11312003EA34FA358A769A77AA78BA79CA72091B1
S113121048033091490340914A0350914B0369A517
S11312207AA58BA59CA50E94770D8E010D5E1F4F9C
S113123023E045E00E941A0F20914C0330914D03A6
S113124040914E0350914F036DA17EA18FA198A5AB
S11312500E94770D075F1F4F23E045E00E941A0F9D
S113126080915C031F928F9380915D031F928F93F3
S113127080915E031F928F9387E293E09F938F93F5
S113128004E613E01F930F930E943A0F980140E085
S113129062E080E00E944D04809155038F93809119
S11312A054038F93809157038F93809156038F93A8
S11312B08091580390915903805D97409F938F9339
S11312C086E393E09F938F931F930F930E943A0FAB
S11312D0980141E062E080E00E944D049E01245E9A
S11312E03F4F40E060E080E00E944D049E012D5E8F
S11312F03F4F40E061E080E00E944D046091620055
S113130070916300809164009091650021E043E056
S11313100E941A0F980140E066E080E00E944D04AC
S113132060916600709167008091680090916900F7
S113133021E043E00E941A0F980140E065E080E05C
S11313400E944D049E01265F3F4F40E063E080E031
S11313500E944D0460916A0070916B00072E000C8E
S1131360880B990B0E94E50D8E010F5F1F4F21E042
S113137043E00E941A0F980140E067E080E00E9479
S11313804D0481E00E94180468E380E00E942F0469
S1131390CE0183509F4F0E943A0460E380E00E9494
S11313A02F04CE018B509F4F0E943A0468E280E0E4
S11313B00E942F04CE0183519F4F0E943A0460E1A2
S11313C080E00E942F04CE01835F9E4F0E943A0466
S11313D068E381E00E942F04CE018B519F4F0E944D
S11313E03A0460E381E00E942F04CE0183529F4FB0
S11313F00E943A0468E281E00E942F04CE018B52DD
S11314009F4F0E943A0460E281E00E942F04CE01C3
S113141083539F4F0E943A0468E181E00E942F04A5
S1131420CE018B539F4F0E943A0460E181E00E94F9
S11314302F04CE01835F9E4F0E943A0468E385E047
S11314400E942F04CE0183509F4F0E943A0460E310
S113145085E00E942F04CE018B509F4F0E943A04D6
S113146068E285E00E942F04CE0183519F4F0E94C1
S11314703A0460E185E00E942F04CE01835F9E4F11
S11314800E943A0468E386E00E942F04CE018B5147
S11314909F4F0E943A0460E386E00E942F04CE012D
S11314A083529F4F0E943A0468E286E00E942F0410
S11314B0CE018B529F4F0E943A0460E286E00E9464
S11314C02F04CE0183539F4F0E943A0468E186E0C3
S11314D00E942F04CE018B539F4F0E943A0460E177
S11314E086E00E942F04CE01835F9E4F0E943A043F
S11314F068E384E00E942F04CE0183549F4F0E942E
S11315003A0460E384E00E942F04CE018B529F4F83
S11315100E943A0468E284E00E942F04CE018B54B6
S11315209F4F0E943A0460E184E00E942F04CE01A0
S1131530835F9E4F0E943A0468E383E00E942F0475
S1131540CE018B509F4F0E943A0460E383E00E94D7
S11315502F04CE0183519F4F0E943A0468E283E036
S11315600E942F04CE0183549F4F0E943A0460E2EC
S113157083E00E942F04CE018B579F4F0E943A04B0
S113158068E183E00E942F04CE0183569F4F0E949E
S11315903A0460E183E00E942F04CE0183539F4FFD
S11315A00E943A0468E083E00E942F04CE018B5627
S11315B09F4F0E943A0460E083E00E942F04CE0112
S11315C083579F4F0E943A0468E387E00E942F04E8
S11315D0CE018B509F4F0E943A0460E387E00E9443
S11315E02F04CE018B529F4F0E943A0468E287E099
S11315F00E942F04CE0183599F4F0E943A0460E257
S113160087E00E942F04CE018B529F4F0E943A0420
S113161068E187E00E942F04CE018B519F4F0E9406
S11316203A0460E187E00E942F04CE01835F9E4F5D
S11316300E943A0480E00E94180480915203909121
S113164053030FB6F894DEBF0FBECDBF009729F544
S113165068E381E00E942F04CE018B5F9E4F0E94BD
S11316603A0468E385E00E942F04CE018B5F9E4F0D
S11316700E943A0468E386E00E942F04CE018B5F47
S11316809E4F0E943A0468E387E00E942F04CE0133
S11316908B5F9E4F0E943A04EAC08130910529F580
S11316A068E380E00E942F04CE018B5F9E4F0E946E
S11316B03A0468E385E00E942F04CE018B5F9E4FBD
S11316C00E943A0468E386E00E942F04CE018B5FF7
S11316D09E4F0E943A0468E387E00E942F04CE01E3
S11316E08B5F9E4F0E943A04C2C08430910571F50D
S11316F068E380E00E942F04CE018B5F9E4F0E941E
S11317003A0468E381E00E942F04CE018B5F9E4F70
S11317100E943A0468E385E00E942F04CE018B5FA7
S11317209E4F0E943A0468E386E00E942F04CE0193
S11317308B5F9E4F0E943A0468E387E00E942F0467
S1131740CE018B5F9E4F0E943A0491C08530910573
S113175071F568E380E00E942F04CE018B5F9E4FF9
S11317600E943A0468E381E00E942F04CE018B5F5B
S11317709E4F0E943A0468E384E00E942F04CE0145
S11317808B5F9E4F0E943A0468E386E00E942F0418
S1131790CE018B5F9E4F0E943A0468E387E00E946B
S11317A02F04CE018B5F9E4F0E943A0460C08630A6
S11317B0910571F568E380E00E942F04CE018B5FF0
S11317C09E4F0E943A0468E381E00E942F04CE01F8
S11317D08B5F9E4F0E943A0468E384E00E942F04CA
S11317E0CE018B5F9E4F0E943A0468E385E00E941D
S11317F02F04CE018B5F9E4F0E943A0468E387E07A
S11318000E942F04CE018B5F9E4F0E943A042FC08A
S1131810079769F568E380E00E942F04CE018B5F8F
S11318209E4F0E943A0468E381E00E942F04CE0197
S11318308B5F9E4F0E943A0468E384E00E942F0469
S1131840CE018B5F9E4F0E943A0468E385E00E94BC
S11318502F04CE018B5F9E4F0E943A0468E386E01A
S11318600E942F04CE018B5F9E4F0E943A0468E3CE
S1131870809152030E942F04CE018D960E943A0457
S113188068E383E00E942F04CE0183589F4F0E9497
S11318903A0460E383E00E942F04CE018B559F4FEE
S11318A00E943A0468E283E00E942F04CE01835F21
S11318B09E4F0E943A0480915003909151038130CD
S11318C0910509F44CC01CF4892B49F006C18230FF
S11318D0910509F484C0039709F4C1C0FEC060E314
S11318E084E00E942F04CE018B5F9E4F0E943A0435
S11318F068E284E00E942F04CE018B5F9E4F0E9419
S11319003A0460E284E00E942F04CE018B5F9E4F74
S11319100E943A0468E184E00E942F04CE018B50B7
S11319209F4F0E943A0460E184E00E942F04CE019C
S11319308B559F4F0E943A0468E084E00E942F0474
S1131940CE0183559F4F0E943A0460E084E00E94D8
S11319502F04CE018B5F9E4F0E943A04C2C060E305
S113196084E00E942F04CE0183539F4F0E943A04C7
S113197068E284E00E942F04CE018B529F4F0E94A4
S11319803A0460E284E00E942F04CE018B589F4FFA
S11319900E943A0468E184E00E942F04CE018B592E
S11319A09F4F0E943A0460E184E00E942F04CE011C
S11319B08B509F4F0E943A0468E084E00E942F04F9
S11319C0CE018B529F4F0E943A0460E084E00E9453
S11319D02F04CE01835A9F4F0E943A0482C060E3D1
S11319E084E00E942F04CE018B5F9E4F0E943A0434
S11319F068E284E00E942F04CE018B5F9E4F0E9418
S1131A003A0460E284E00E942F04CE018B5F9E4F73
S1131A100E943A0468E184E00E942F04CE018B5AAC
S1131A209F4F0E943A0460E184E00E942F04CE019B
S1131A308B5B9F4F0E943A0468E084E00E942F046D
S1131A40CE01835B9F4F0E943A0460E084E00E94D1
S1131A502F04CE018B5F9E4F0E943A0442C060E384
S1131A6084E00E942F04CE01CD960E943A0468E2DD
S1131A7084E00E942F04CE01C5960E943A0460E2DD
S1131A8084E00E942F04CE018B559F4F0E943A049C
S1131A9068E184E00E942F04CE018B509F4F0E9486
S1131AA03A0460E184E00E942F04CE018B559F4FDD
S1131AB00E943A0468E084E00E942F04CE0183551A
S1131AC09F4F0E943A0460E084E00E942F04CE01FC
S1131AD08B5F9E4F0E943A0404C0109251031092EF
S1131AE05003BAE1BA95F1F700C03ECB5058BB277A
S1131AF0AA270E948E0D0C94370E0E94290E38F0EE
S1131B000E94300E20F039F49F3F19F426F40C940F
S1131B10260E0EF4E095E7FB0C94200EE92F0E94AC
S1131B20480E58F3BA17620773078407950720F025
S1131B3079F4A6F50C946A0E0EF4E0950B2EBA2FE8
S1131B40A02D0B01B90190010C01CA01A0011124BF
S1131B50FF27591B99F0593F50F4503E68F11A166B
S1131B60F040A22F232F342F4427585FF3CF4695FC
S1131B7037952795A795F0405395C9F77EF41F161E
S1131B80BA0B620B730B840BBAF09150A1F0FF0FE8
S1131B90BB1F661F771F881FC2F70EC0BA0F621FD4
S1131BA0731F841F48F4879577956795B795F795C4
S1131BB09E3F08F0B0CF9395880F08F09927EE0F59
S1131BC0979587950895E89409C097FB3EF49095FE
S1131BD08095709561957F4F8F4F9F4F9923A9F002
S1131BE0F92F96E9BB279395F69587957795679591
S1131BF0B795F111F8CFFAF4BB0F11F460FF1BC0D5
S1131C006F5F7F4F8F4F9F4F16C0882311F096E967
S1131C1011C0772321F09EE8872F762F05C0662315
S1131C2071F096E8862F70E060E02AF09A95660FCE
S1131C30771F881FDAF7880F9695879597F9089587
S1131C4097F99F6780E870E060E008959FEF80EC6B
S1131C50089500240A94161617061806090608950E
S1131C6000240A9412161306140605060895092E74
S1131C700394000C11F4882352F0BB0F40F4BF2BE3
S1131C8011F460FF04C06F5F7F4F8F4F9F4F089523
S1131C9057FD9058440F551F59F05F3F71F0479519
S1131CA0880F97FB991F61F09F3F79F087950895FE
S1131CB0121613061406551FF2CF4695F1DF08C01D
S1131CC0161617061806991FF1CF8695710561053A
S1131CD008940895E894BB2766277727CB0197F9E2
S1131CE008950E94840E0C94370E0E94290E38F039
S1131CF00E94300E20F0952311F00C94200E0C94C9
S1131D00260E11240C946B0E0E94480E70F3959FBE
S1131D10C1F3950F50E0551F629FF001729FBB27DE
S1131D20F00DB11D639FAA27F00DB11DAA1F649F7A
S1131D306627B00DA11D661F829F2227B00DA11D2D
S1131D40621F739FB00DA11D621F839FA00D611DB3
S1131D50221F749F3327A00D611D231F849F600DD4
S1131D60211D822F762F6A2F11249F5750409AF0FD
S1131D70F1F088234AF0EE0FFF1FBB1F661F771F89
S1131D80881F91505040A9F79E3F510580F00C9454
S1131D90200E0C946B0E5F3FE4F3983ED4F38695CB
S1131DA077956795B795F795E7959F5FC1F7FE2BF4
S1131DB0880F911D9695879597F90895A1E21A2E9B
S1131DC0AA1BBB1BFD010DC0AA1FBB1FEE1FFF1FDB
S1131DD0A217B307E407F50720F0A21BB30BE40B2B
S1131DE0F50B661F771F881F991F1A9469F7609572
S1131DF07095809590959B01AC01BD01CF0108952C
S1131E00A29FB001B39FC001A39F700D811D112437
S1131E10911DB29F700D811D1124911D08950E9482
S1131E20000FA59F900DB49F900DA49F800D911D50
S1131E3011240895EF920F931F93CF93DF93E8013A
S1131E4047FD02C034E001C034E1E42F440FFF0B2E
S1131E50F7FF03C0F195E195F109E32E022F2E2F30
S1131E60AE010E942F11CE01DF91CF911F910F91EE
S1131E70EF900895AEE0B0E0E0E4FFE00C944F147E
S1131E800D891E8986E08C831A8309838FEF9FE76F
S1131E909E838D83AE01475E5F4F6F89788DCE013F
S1131EA001960E945D0F2F813885F801E20FF31F20
S1131EB010822E96E4E00C946B14ACE0B0E0E3E600
S1131EC0FFE00C9441147C016B018A01FC01178230
S1131ED01682838181FFBDC1CE0101964C01F701B9
S1131EE09381F60193FD859193FF81916F0188237E
S1131EF009F4ABC1853239F493FD859193FF819147
S1131F006F01853229F4B70190E00E94AB13E7CF4B
S1131F10512C312C20E02032A0F48B3269F030F4C3
S1131F20803259F0833269F420612CC08D3239F04B
S1131F30803339F4216026C02260246023C02860E5
S1131F4021C027FD27C030ED380F3A3078F426FF42
S1131F5006C0FAE05F9E300D1124532E13C08AE0B0
S1131F60389E300D1124332E20620CC08E3221F4A1
S1131F7026FD6BC1206406C08C3611F4206802C0B3
S1131F80883641F4F60193FD859193FF81916F01A9
S1131F908111C1CF982F9F7D9554933028F40C5F05
S1131FA01F4FFFE3F9830DC0833631F0833771F09F
S1131FB0833509F05BC022C0F801808189830E5FFC
S1131FC01F4F44244394512C540115C03801F2E0AE
S1131FD06F0E711CF801A080B18026FF03C0652D2F
S1131FE070E002C06FEF7FEFC5012C870E94A01341
S1131FF02C0183012C852F77222E17C03801F2E0A3
S11320006F0E711CF801A080B18026FF03C0652DFE
S113201070E002C06FEF7FEFC5012C870E9495131B
S11320202C012C852068222E830123FC1BC0832DC8
S113203090E048165906B0F4B70180E290E00E949F
S1132040AB133A94F4CFF50127FC859127FE8191D7
S11320505F01B70190E00E94AB1331103A94F1E0B4
S11320604F1A51084114510471F7E5C0843611F038
S1132070893639F5F80127FF07C0608171818281B3
S113208093810C5F1F4F08C060817181072E000C83
S1132090880B990B0E5F1F4F2F76722E97FF09C086
S11320A090958095709561957F4F8F4F9F4F2068D5
S11320B0722E2AE030E0A4010E94E313A82EA8188F
S11320C044C0853729F42F7EB22E2AE030E025C0A3
S11320D0F22FF97FBF2E8F36C1F018F4883579F0CE
S11320E0B4C0803719F0883721F0AFC02F2F20619A
S11320F0B22EB4FE0DC08B2D8460B82E09C024FF0F
S11321000AC09F2F9660B92E06C028E030E005C0B3
S113211020E130E002C020E132E0F801B7FE07C060
S113212060817181828193810C5F1F4F06C0608141
S1132130718180E090E00E5F1F4FA4010E94E313C1
S1132140A82EA818FB2DFF777F2E76FE0BC0372D07
S11321503E7FA51450F474FE0AC072FC08C0372DEB
S11321603E7E05C0BA2C372D03C0BA2C01C0B52C55
S113217034FF0DC0FE01EA0DF11D8081803311F49E
S1132180397E09C032FF06C0B394B39404C0832FD0
S1132190867809F0B39433FD13C030FF06C05A2C7F
S11321A0B31418F4530C5B18B32CB31468F4B701CC
S11321B080E290E03C870E94AB13B3943C85F5CF5A
S11321C0B31410F43B1801C0312C34FF12C0B70112
S11321D080E390E03C870E94AB133C8532FF17C03C
S11321E031FD03C088E790E002C088E590E0B701C4
S11321F00CC0832F867859F031FF02C08BE201C0F6
S113220080E237FD8DE2B70190E00E94AB13A51484
S113221038F4B70180E390E00E94AB135A94F7CFEF
S1132220AA94F401EA0DF11D8081B70190E00E94A7
S1132230AB13A110F5CF332009F451CEB70180E2DE
S113224090E00E94AB133A94F6CFF7018681978110
S113225002C08FEF9FEF2C96E2E10C945D144F9235
S11322605F926F927F929F92AF92BF92CF92DF92D2
S1132270EF92FF920F931F93CF93DF93CDB7DEB707
S113228029970FB6F894DEBF0FBECDBF6A01122F97
S1132290B02E2BE3201720F0FF24F394F00E02C09D
S11322A0BCE3FB2E0F2D27E0AE014F5F5F4F0E9472
S11322B0BD12AC018981982F9970913031F0E1FC05
S11322C006C0E0FE06C090E205C09DE203C09BE2AA
S11322D001C090E0EE2DE07183FF3CC0911102C07B
S11322E083E001C084E0811718F4212F281B01C06A
S11322F020E0E1110BC0F601822F30E2882319F0AF
S113230031938150FBCFC20ED11C20E0992329F0D8
S1132310D6019C93F60131966F01C6010396E2FE45
S11323200AC03EE4D6013C9341E411964C931197C4
S113233012963C9306C03EE6F601308341E64183A3
S11323403283FC01322F40E2332309F442C041932B
S11323503150FACF82FF44C0911102C083E001C022
S113236084E0811718F4212F281B01C020E0E1111B
S11323700BC0F601822F30E2882319F0319381508B
S1132380FBCFC20ED11C20E0992329F0D6019C93E7
S1132390F60131966F01C6010396E2FE0BC039E4E3
S11323A0D6013C933EE411963C93119736E4129681
S11323B03C9307C039E6F60130833EE6318336E6C6
S11323C03283FC01322F40E2332319F04193315020
S11323D0FBCFFC01E20FF11D10828EEF9FEFB7C01F
S11323E0F1E0911101C0F0E06F2F70E014161506B2
S11323F024F49A012F5F3F4F02C021E030E0260F02
S1132400371FBB2029F06B2D70E06F5F7F4F02C038
S113241060E070E0260F371F612F70E02617370742
S11324201CF4121B212F01C020E03E2D387159F4F9
S1132430D601322F60E2332319F06D933150FBCF74
S1132440C20ED11C20E0FF2331F0D6019C93B601CB
S11324506F5F7F4F6B01E1110BC0F601922F30E3E8
S1132460992319F031939150FBCFC20ED11C20E077
S11324709F2D940F3A81782F7071A72E84FF03C08B
S1132480313309F49150191624F4993018F098E076
S113249001C091E0E42F852F57FF02C0E0E080E007
S11324A06E2F782FE0E0F0E0AEE29A2E3A01691A3E
S11324B071082A01461A570A0B2D10E0119501954F
S11324C011096F3F8FEF780729F4D6019C92C6015A
S11324D001966C014617570784F0661677066CF46C
S11324E07F01E40CF51CA1E0B0E0AC0FBD1FEA0EC7
S11324F0FB1ED7011196BC9002C090E3B92E615027
S113250071093196C60101967C016017710724F0A8
S1132510D601BC926C01D5CF6417750741F43633EC
S113252020F4353321F4A11002C081E3B82EF60162
S1132530B082F701822F90E2882319F091938150A1
S1132540FBCFF701E20FF11D108280E090E02996A5
S11325500FB6F894DEBF0FBECDBFDF91CF911F91B0
S11325600F91FF90EF90DF90CF90BF90AF909F902E
S11325707F906F905F904F900895283008F027E087
S11325803327DA01990F311D87FD916000966105AB
S1132590710539F432602E5F3D9330E32A95E1F7FB
S11325A008959F3F30F080387105610509F03C5F64
S11325B03C5F3D93913008F08068911DDF93CF9389
S11325C01F930F93FF92EF92192F987F9695E92FFF
S11325D096959695E90FFF27E255FF4F99273327E4
S11325E0EE24FF24A701E70105900894079428F43A
S11325F0360FE71EF81E491F511D660F771F881FEF
S1132600991F0694A1F70590079428F4E70EF81E85
S1132610491F561FC11D770F881F991F661F0694F7
S1132620A1F70590079428F4F80E491F561FC71FF9
S1132630D11D880F991F661F771F0694A1F7059077
S1132640079420F4490F561FC71FD81F990F661F00
S1132650771F881F0694A9F784911095177041F08D
S1132660D695C79557954795F794E7941A95C1F76A
S1132670E4E5F0E068941590159135916591959194
S113268005907FE27395E118F10A430B560BC90BD1
S1132690D009C0F7E10CF11E431F561FC91FD01DFE
S11326A07EF4703311F48A95E6CFE894015030F04B
S11326B0080F0AF40027021708F4202F2395022F8D
S11326C07A3328F079E37D932A95E9F710C07D9356
S11326D02A9589F6069497956795379517951794D3
S11326E0E118F10A430B560BC90BD00998F0239556
S11326F07E9173957A3308F070E37C932013B8F7D6
S11327007E9170617D9330F0839571E37D9370E3E6
S11327102A95E1F71124EF90FF900F911F91CF912B
S1132720DF91992787FD90950895FC0105906150EC
S113273070400110D8F7809590958E0F9F1F0895D3
S1132740FC016150704001900110D8F7809590957C
S11327508E0F9F1F08950F931F93CF93DF93FB0159
S1132760238121FD03C08FEF9FEF28C022FF16C0F5
S113277046815781248135814217530744F4A0814F
S1132780B1819D012F5F3F4F318320838C9326813C
S113279037812F5F3F4F3783268310C0EB01092F0A
S11327A0182F0084F185E02D0995892BE1F68E819F
S11327B09F8101969F838E83812F902FDF91CF91EC
S11327C01F910F910895FA01AA27283051F1203161
S11327D081F1E8946F936E7F6E5F7F4F8F4F9F4FB1
S11327E0AF4FB1E03ED0B4E03CD0670F781F891FF3
S11327F09A1FA11D680F791F8A1F911DA11D6A0FC1
S1132800711D811D911DA11D20D009F468943F9173
S11328102AE0269F11243019305D3193DEF6CF0172
S11328200895462F4770405D4193B3E00FD0C9F738
S1132830F6CF462F4F70405D4A3318F0495D31FDA5
S11328404052419302D0A9F7EACFB4E0A6959795F8
S1132850879577956795BA95C9F7009761057105CE
S113286008959B01AC010A2E069457954795379518
S11328702795BA95C9F7620F731F841F951FA01D72
S113288008952F923F924F925F926F927F928F9210
S11328909F92AF92BF92CF92DF92EF92FF920F93EB
S11328A01F93CF93DF93CDB7DEB7CA1BDB0B0FB6F5
S11328B0F894DEBF0FBECDBF09942A8839884888B2
S11328C05F846E847D848C849B84AA84B984C88448
S11328D0DF80EE80FD800C811B81AA81B981CE0F3F
S11328E0D11D0FB6F894DEBF0FBECDBFED01089524
S10728F0F894FFCF86
S11328F464000000B0410000B04116000000000074
S113290400004F0000000700070000147F147F1428
S1132914242A7F2A1223130864623649552240006C
S1132924050300001C2241000041221C000014087D
S11329343E081408083E080800281800000808087F
S11329440808303000000020100804020030484811
S113295430000000007E007E0808067E0806080693
S11329647C101C1212304A244830004C32100806E1
S1132974186018066018061860000C12127C0036E1
S11329843600000056360000081422410024242492
S113299424240041221408020151090632497941D0
S11329A43E7E1111117E7F494949363E41414122FF
S11329B47F4141221C7F494949417F090909013E5C
S11329C44149493A7F0808087F00417F410020407B
S11329D4413F017F081422417F404040407F020C64
S11329E4027F7F0408107F3E4141413E7F0909096B
S11329F4063E4151215E7F09192946464949493118
S1132A0401017F01013F4040403F1F2040201F3F00
S1132A144060403F63140814630708700807615159
S1132A244945437F4141000015167C161541417FF9
S1132A34000004020102044040404040010204003A
S1132A440020545454787F44444438384444440063
S1132A54384444487F3854545418107E1101020CED
S1132A645252523E7F0804047800447D40002040C2
S1132A74403D007F1028440000417F40007C04183E
S1132A8404787C0804047838444444387C141414CA
S1132A9408081414187C7C0804040848545454206A
S1132AA4043F4440203C4040207C1C2040201C1E09
S1132AB42010201E2214081422064848483E446468
S1132AC4544C44083641000000007F00004136089D
S1132AD4000008082A1C0800003636000000000024
S1132AE400242424380000202020203048483000CA
S1132AF41E20202020202000808040300000002060
S1132B04203E302828180000B0A878202020202057
S1132B14202020A020283000302822202228302001
S1132B24202020222018000040A0B02828202000C3
S1132B3440A0B0282A20200080804030202020009B
S1132B4400302828300000001814141820202020F5
S1132B54202030283A2C1800002424243820202053
S1132B6420282868B0602020202020302A28322001
S1132B7420202220222830202020201F2020200052
S1132B8400608088806000222525252525251930AC
S1132B94282C2A203F202020202020B02020202060
S1132BA420203822392218202020223022202000FC
S1132BB41C1C1C7F3E1C08253032753A25303275A6
S1132BC43A2530327500253032752F253032752F71
S1092BD4253032750000FB
S9030000FC
