:100000000C942A000C9434000C9434000C943400AA
:100010000C9434000C9434000C9434000C94340090
:100020000C9434000C9434000C9434000C94340080
:100030000C9434000C9434000C9434000C94340070
:100040000C9434000C9434000C9434000C94340060
:100050000C94340011241FBECFE5D8E0DEBFCDBF25
:100060000E9454000C94BB000C9400008BBB96982B
:10007000959A2FEF80E792E0215080409040E1F781
:1000800000C0000095981BBA08958BBB969A959A6C
:100090002FEF80E792E0215080409040E1F700C0D0
:1000A000000095981BBA08958FEF8ABB81BB2FEF94
:1000B00080E792E0215080409040E1F700C00000CE
:1000C00081E00E94360088E30E9436008CE00E94A6
:1000D000360084E10E94360084E10E94360088E404
:1000E0000E94450085E60E9445008CE60E9445007E
:1000F0008CE60E9445008FE60E94450080E20E9447
:10010000450087E50E9445008FE60E94450082E792
:100110000E9445008CE60E94450084E60E9445004E
:1001200081E20E94450080EC0E94360084E10E943A
:10013000360084E10E94360088E40E9445008FE684
:100140000E9445008AE60E9445008AE60E9445001A
:1001500081E60E94450084E70E94450082B38058F2
:1001600082BB2FEF89E698E1215080409040E1F773
:0A01700000C00000F3CFF894FFCFA9
:00000001FF
