:1000000012C025C023C022C021C020C01FC01EC0F6
:100010001DC01CC01BC01AC019C018C017C016C014
:1000200015C014C013C011241FBECFE5D4E0DEBF3D
:10003000CDBF10E0A0E6B0E0E8EDF0E002C0059032
:100040000D92A236B107D9F718D044C0D9CF1F926C
:100050000F920FB60F9211248F939F93C3988FE640
:1000600094E90197F1F700C00000C39A9F918F9126
:100070000F900FBE0F901F90189518BA88E087BB9D
:1000800012BA11BA8BB780648BBF83E085BF80E45E
:100090008ABF84E489BF789424E630E080916000D0
:1000A0009091610001968C3241E0940729F0909381
:1000B00061008093600004C0309361002093600071
:1000C0008FEF9DEE42E0815090404040E1F700C04C
:0800D0000000E4CFF894FFCF1B
:0200D8006400C2
:00000001FF
